{"abi":[{"type":"constructor","inputs":[{"name":"_usdcToken","type":"address","internalType":"address"}],"stateMutability":"nonpayable"},{"type":"function","name":"cancelOwnershipHandover","inputs":[],"outputs":[],"stateMutability":"payable"},{"type":"function","name":"completeOwnershipHandover","inputs":[{"name":"pendingOwner","type":"address","internalType":"address"}],"outputs":[],"stateMutability":"payable"},{"type":"function","name":"depositRewards","inputs":[{"name":"amount","type":"uint256","internalType":"uint256"}],"outputs":[],"stateMutability":"nonpayable"},{"type":"function","name":"getUsdcBalance","inputs":[],"outputs":[{"name":"","type":"uint256","internalType":"uint256"}],"stateMutability":"view"},{"type":"function","name":"getVaultStats","inputs":[],"outputs":[{"name":"_totalDeposited","type":"uint256","internalType":"uint256"},{"name":"_totalWithdrawn","type":"uint256","internalType":"uint256"},{"name":"_currentBalance","type":"uint256","internalType":"uint256"}],"stateMutability":"view"},{"type":"function","name":"owner","inputs":[],"outputs":[{"name":"result","type":"address","internalType":"address"}],"stateMutability":"view"},{"type":"function","name":"ownershipHandoverExpiresAt","inputs":[{"name":"pendingOwner","type":"address","internalType":"address"}],"outputs":[{"name":"result","type":"uint256","internalType":"uint256"}],"stateMutability":"view"},{"type":"function","name":"renounceOwnership","inputs":[],"outputs":[],"stateMutability":"payable"},{"type":"function","name":"requestOwnershipHandover","inputs":[],"outputs":[],"stateMutability":"payable"},{"type":"function","name":"setTokenFarmManager","inputs":[{"name":"_tokenFarmManager","type":"address","internalType":"address"}],"outputs":[],"stateMutability":"nonpayable"},{"type":"function","name":"tokenFarmManager","inputs":[],"outputs":[{"name":"","type":"address","internalType":"address"}],"stateMutability":"view"},{"type":"function","name":"totalDeposited","inputs":[],"outputs":[{"name":"","type":"uint256","internalType":"uint256"}],"stateMutability":"view"},{"type":"function","name":"totalWithdrawn","inputs":[],"outputs":[{"name":"","type":"uint256","internalType":"uint256"}],"stateMutability":"view"},{"type":"function","name":"transferOwnership","inputs":[{"name":"newOwner","type":"address","internalType":"address"}],"outputs":[],"stateMutability":"payable"},{"type":"function","name":"transferReward","inputs":[{"name":"to","type":"address","internalType":"address"},{"name":"amount","type":"uint256","internalType":"uint256"}],"outputs":[],"stateMutability":"nonpayable"},{"type":"function","name":"usdcToken","inputs":[],"outputs":[{"name":"","type":"address","internalType":"address"}],"stateMutability":"view"},{"type":"function","name":"withdrawUnusedRewards","inputs":[{"name":"amount","type":"uint256","internalType":"uint256"}],"outputs":[],"stateMutability":"nonpayable"},{"type":"event","name":"OwnershipHandoverCanceled","inputs":[{"name":"pendingOwner","type":"address","indexed":true,"internalType":"address"}],"anonymous":false},{"type":"event","name":"OwnershipHandoverRequested","inputs":[{"name":"pendingOwner","type":"address","indexed":true,"internalType":"address"}],"anonymous":false},{"type":"event","name":"OwnershipTransferred","inputs":[{"name":"oldOwner","type":"address","indexed":true,"internalType":"address"},{"name":"newOwner","type":"address","indexed":true,"internalType":"address"}],"anonymous":false},{"type":"event","name":"RewardsDeposited","inputs":[{"name":"depositor","type":"address","indexed":true,"internalType":"address"},{"name":"amount","type":"uint256","indexed":false,"internalType":"uint256"}],"anonymous":false},{"type":"event","name":"RewardsWithdrawn","inputs":[{"name":"owner","type":"address","indexed":true,"internalType":"address"},{"name":"amount","type":"uint256","indexed":false,"internalType":"uint256"}],"anonymous":false},{"type":"event","name":"TokenFarmManagerUpdated","inputs":[{"name":"oldManager","type":"address","indexed":true,"internalType":"address"},{"name":"newManager","type":"address","indexed":true,"internalType":"address"}],"anonymous":false},{"type":"error","name":"AlreadyInitialized","inputs":[]},{"type":"error","name":"NewOwnerIsZeroAddress","inputs":[]},{"type":"error","name":"NoHandoverRequest","inputs":[]},{"type":"error","name":"Unauthorized","inputs":[]}],"bytecode":{"object":"0x60a060405234801561000f575f80fd5b50604051610e62380380610e6283398101604081905261002e916100f0565b6001600160a01b0381166100995760405162461bcd60e51b815260206004820152602860248201527f5061796d656e745661756c743a20696e76616c6964205553444320746f6b656e604482015267206164647265737360c01b606482015260840160405180910390fd5b6001600160a01b0381166080526100af336100b5565b5061011d565b6001600160a01b0316638b78c6d819819055805f7f8be0079c531659141344cd1fd0a4f28419497f9722a3daafe3b4186f6b6457e08180a350565b5f60208284031215610100575f80fd5b81516001600160a01b0381168114610116575f80fd5b9392505050565b608051610cfc6101665f395f818161012f015281816104c60152818161057b01528181610717015281816108020152818161088d015281816109a40152610a4f0152610cfc5ff3fe6080604052600436106100f9575f3560e01c80638bdf67f211610092578063f04e283e11610062578063f04e283e14610260578063f2fde38b14610273578063f7864f3214610286578063fee81cf4146102a5578063ff50abdc146102d6575f80fd5b80638bdf67f2146101e65780638da5cb5b14610205578063a59aa5a61461021d578063c31ee12e1461024c575f80fd5b80632f4f7fe0116100cd5780632f4f7fe0146101955780634b319713146101b357806354d1f13d146101d6578063715018a6146101de575f80fd5b80620afeb0146100fd57806311eac8551461011e57806315490ebb1461016e578063256929621461018d575b5f80fd5b348015610108575f80fd5b5061011c610117366004610b7c565b6102eb565b005b348015610129575f80fd5b506101517f000000000000000000000000000000000000000000000000000000000000000081565b6040516001600160a01b0390911681526020015b60405180910390f35b348015610179575f80fd5b5061011c610188366004610b9c565b6103b6565b61011c610635565b3480156101a0575f80fd5b505f54610151906001600160a01b031681565b3480156101be575f80fd5b506101c860025481565b604051908152602001610165565b61011c610682565b61011c6106bb565b3480156101f1575f80fd5b5061011c610200366004610bc4565b6106ce565b348015610210575f80fd5b50638b78c6d81954610151565b348015610228575f80fd5b506102316107d9565b60408051938452602084019290925290820152606001610165565b348015610257575f80fd5b506101c8610876565b61011c61026e366004610b7c565b610903565b61011c610281366004610b7c565b610940565b348015610291575f80fd5b5061011c6102a0366004610bc4565b610966565b3480156102b0575f80fd5b506101c86102bf366004610b7c565b63389a75e1600c9081525f91909152602090205490565b3480156102e1575f80fd5b506101c860015481565b6102f3610b0a565b6001600160a01b0381166103675760405162461bcd60e51b815260206004820152603060248201527f5061796d656e745661756c743a20696e76616c696420746f6b656e206661726d60448201526f206d616e61676572206164647265737360801b60648201526084015b60405180910390fd5b5f80546001600160a01b038381166001600160a01b0319831681178455604051919092169283917f513f0482caf5458d465f818cf41ade7f5e1207e227b49661f5dfee8b87c973789190a35050565b5f546001600160a01b0316331461042a5760405162461bcd60e51b815260206004820152603260248201527f5061796d656e745661756c743a2063616c6c6572206973206e6f7420746865206044820152713a37b5b2b7103330b9369036b0b730b3b2b960711b606482015260840161035e565b6001600160a01b0382166104905760405162461bcd60e51b815260206004820152602760248201527f5061796d656e745661756c743a20696e76616c696420726563697069656e74206044820152666164647265737360c81b606482015260840161035e565b5f81116104af5760405162461bcd60e51b815260040161035e90610bdb565b6040516370a0823160e01b815230600482015281907f00000000000000000000000000000000000000000000000000000000000000006001600160a01b0316906370a0823190602401602060405180830381865afa158015610513573d5f803e3d5ffd5b505050506040513d601f19601f820116820180604052508101906105379190610c29565b10156105555760405162461bcd60e51b815260040161035e90610c40565b60405163a9059cbb60e01b81526001600160a01b038381166004830152602482018390527f0000000000000000000000000000000000000000000000000000000000000000169063a9059cbb906044016020604051808303815f875af11580156105c1573d5f803e3d5ffd5b505050506040513d601f19601f820116820180604052508101906105e59190610c82565b6106315760405162461bcd60e51b815260206004820152601d60248201527f5061796d656e745661756c743a207472616e73666572206661696c6564000000604482015260640161035e565b5050565b5f6202a30067ffffffffffffffff164201905063389a75e1600c52335f52806020600c2055337fdbf36a107da19e49527a7176a1babf963b4b0ff8cde35ee35d6cd8f1f9ac7e1d5f80a250565b63389a75e1600c52335f525f6020600c2055337ffa7b8eab7da67f412cc9575ed43464468f9bfbae89d1675917346ca6d8fe3c925f80a2565b6106c3610b0a565b6106cc5f610b24565b565b6106d6610b0a565b5f81116106f55760405162461bcd60e51b815260040161035e90610bdb565b6040516323b872dd60e01b8152336004820152306024820152604481018290527f00000000000000000000000000000000000000000000000000000000000000006001600160a01b0316906323b872dd906064016020604051808303815f875af1158015610765573d5f803e3d5ffd5b505050506040513d601f19601f820116820180604052508101906107899190610c82565b508060015f82825461079b9190610ca1565b909155505060405181815233907fb8b27d0db504fa5d914f1fd330347096e88d5ff94b6c612d32797e7c12a8f66f906020015b60405180910390a250565b6001546002546040516370a0823160e01b81523060048201525f92839283926001600160a01b037f000000000000000000000000000000000000000000000000000000000000000016906370a0823190602401602060405180830381865afa158015610847573d5f803e3d5ffd5b505050506040513d601f19601f8201168201806040525081019061086b9190610c29565b925092509250909192565b6040516370a0823160e01b81523060048201525f907f00000000000000000000000000000000000000000000000000000000000000006001600160a01b0316906370a0823190602401602060405180830381865afa1580156108da573d5f803e3d5ffd5b505050506040513d601f19601f820116820180604052508101906108fe9190610c29565b905090565b61090b610b0a565b63389a75e1600c52805f526020600c20805442111561093157636f5e88185f526004601cfd5b5f905561093d81610b24565b50565b610948610b0a565b8060601b61095d57637448fbae5f526004601cfd5b61093d81610b24565b61096e610b0a565b5f811161098d5760405162461bcd60e51b815260040161035e90610bdb565b6040516370a0823160e01b815230600482015281907f00000000000000000000000000000000000000000000000000000000000000006001600160a01b0316906370a0823190602401602060405180830381865afa1580156109f1573d5f803e3d5ffd5b505050506040513d601f19601f82011682018060405250810190610a159190610c29565b1015610a335760405162461bcd60e51b815260040161035e90610c40565b60405163a9059cbb60e01b8152336004820152602481018290527f00000000000000000000000000000000000000000000000000000000000000006001600160a01b03169063a9059cbb906044016020604051808303815f875af1158015610a9d573d5f803e3d5ffd5b505050506040513d601f19601f82011682018060405250810190610ac19190610c82565b508060025f828254610ad39190610ca1565b909155505060405181815233907f8a43c4352486ec339f487f64af78ca5cbf06cd47833f073d3baf3a193e503161906020016107ce565b638b78c6d8195433146106cc576382b429005f526004601cfd5b638b78c6d81980546001600160a01b039092169182907f8be0079c531659141344cd1fd0a4f28419497f9722a3daafe3b4186f6b6457e05f80a355565b80356001600160a01b0381168114610b77575f80fd5b919050565b5f60208284031215610b8c575f80fd5b610b9582610b61565b9392505050565b5f8060408385031215610bad575f80fd5b610bb683610b61565b946020939093013593505050565b5f60208284031215610bd4575f80fd5b5035919050565b6020808252602e908201527f5061796d656e745661756c743a20616d6f756e74206d7573742062652067726560408201526d61746572207468616e207a65726f60901b606082015260800190565b5f60208284031215610c39575f80fd5b5051919050565b60208082526022908201527f5061796d656e745661756c743a20696e73756666696369656e742062616c616e604082015261636560f01b606082015260800190565b5f60208284031215610c92575f80fd5b81518015158114610b95575f80fd5b80820180821115610cc057634e487b7160e01b5f52601160045260245ffd5b9291505056fea2646970667358221220ec218ad5285a676dd9de7d02a52084eb51a814b32bfe434fbbaafc955b685d8064736f6c63430008140033","linkReferences":{}},"methodIdentifiers":{"cancelOwnershipHandover()":"54d1f13d","completeOwnershipHandover(address)":"f04e283e","depositRewards(uint256)":"8bdf67f2","getUsdcBalance()":"c31ee12e","getVaultStats()":"a59aa5a6","owner()":"8da5cb5b","ownershipHandoverExpiresAt(address)":"fee81cf4","renounceOwnership()":"715018a6","requestOwnershipHandover()":"25692962","setTokenFarmManager(address)":"000afeb0","tokenFarmManager()":"2f4f7fe0","totalDeposited()":"ff50abdc","totalWithdrawn()":"4b319713","transferOwnership(address)":"f2fde38b","transferReward(address,uint256)":"15490ebb","usdcToken()":"11eac855","withdrawUnusedRewards(uint256)":"f7864f32"},"id":19}