{"abi":[{"type":"constructor","inputs":[{"name":"_usdcToken","type":"address","internalType":"address"}],"stateMutability":"nonpayable"},{"type":"receive","stateMutability":"payable"},{"type":"function","name":"BASE_YIELD_RATE","inputs":[],"outputs":[{"name":"","type":"uint256","internalType":"uint256"}],"stateMutability":"view"},{"type":"function","name":"GROWTH_PERIOD","inputs":[],"outputs":[{"name":"","type":"uint256","internalType":"uint256"}],"stateMutability":"view"},{"type":"function","name":"LEVEL_XP_THRESHOLD","inputs":[],"outputs":[{"name":"","type":"uint256","internalType":"uint256"}],"stateMutability":"view"},{"type":"function","name":"XP_PER_HARVEST","inputs":[],"outputs":[{"name":"","type":"uint256","internalType":"uint256"}],"stateMutability":"view"},{"type":"function","name":"calculateReward","inputs":[{"name":"stakedAmount","type":"uint256","internalType":"uint256"},{"name":"user","type":"address","internalType":"address"}],"outputs":[{"name":"","type":"uint256","internalType":"uint256"}],"stateMutability":"view"},{"type":"function","name":"cancelOwnershipHandover","inputs":[],"outputs":[],"stateMutability":"payable"},{"type":"function","name":"completeOwnershipHandover","inputs":[{"name":"pendingOwner","type":"address","internalType":"address"}],"outputs":[],"stateMutability":"payable"},{"type":"function","name":"depositRewards","inputs":[{"name":"amount","type":"uint256","internalType":"uint256"}],"outputs":[],"stateMutability":"nonpayable"},{"type":"function","name":"emergencyWithdraw","inputs":[{"name":"farmId","type":"uint256","internalType":"uint256"}],"outputs":[],"stateMutability":"nonpayable"},{"type":"function","name":"farmCounter","inputs":[],"outputs":[{"name":"","type":"uint256","internalType":"uint256"}],"stateMutability":"view"},{"type":"function","name":"getActiveFarms","inputs":[{"name":"user","type":"address","internalType":"address"}],"outputs":[{"name":"farmIds","type":"uint256[]","internalType":"uint256[]"},{"name":"farms","type":"tuple[]","internalType":"struct TokenFarmManager.Farm[]","components":[{"name":"stakedAmount","type":"uint256","internalType":"uint256"},{"name":"plantTime","type":"uint256","internalType":"uint256"},{"name":"harvestTime","type":"uint256","internalType":"uint256"},{"name":"growthStage","type":"uint256","internalType":"uint256"},{"name":"growthProgress","type":"uint256","internalType":"uint256"},{"name":"isActive","type":"bool","internalType":"bool"},{"name":"isHarvested","type":"bool","internalType":"bool"}]}],"stateMutability":"view"},{"type":"function","name":"getCurrentGrowthStage","inputs":[{"name":"user","type":"address","internalType":"address"},{"name":"farmId","type":"uint256","internalType":"uint256"}],"outputs":[{"name":"","type":"uint8","internalType":"enum TokenFarmManager.GrowthStage"}],"stateMutability":"view"},{"type":"function","name":"getGlobalStats","inputs":[],"outputs":[{"name":"_totalValueLocked","type":"uint256","internalType":"uint256"},{"name":"_totalRewardsDistributed","type":"uint256","internalType":"uint256"},{"name":"_farmCounter","type":"uint256","internalType":"uint256"},{"name":"_usdcBalance","type":"uint256","internalType":"uint256"}],"stateMutability":"view"},{"type":"function","name":"getGrowthProgress","inputs":[{"name":"user","type":"address","internalType":"address"},{"name":"farmId","type":"uint256","internalType":"uint256"}],"outputs":[{"name":"","type":"uint256","internalType":"uint256"}],"stateMutability":"view"},{"type":"function","name":"getHarvestableFarms","inputs":[{"name":"user","type":"address","internalType":"address"}],"outputs":[{"name":"farmIds","type":"uint256[]","internalType":"uint256[]"},{"name":"farms","type":"tuple[]","internalType":"struct TokenFarmManager.Farm[]","components":[{"name":"stakedAmount","type":"uint256","internalType":"uint256"},{"name":"plantTime","type":"uint256","internalType":"uint256"},{"name":"harvestTime","type":"uint256","internalType":"uint256"},{"name":"growthStage","type":"uint256","internalType":"uint256"},{"name":"growthProgress","type":"uint256","internalType":"uint256"},{"name":"isActive","type":"bool","internalType":"bool"},{"name":"isHarvested","type":"bool","internalType":"bool"}]}],"stateMutability":"view"},{"type":"function","name":"getUserFarms","inputs":[{"name":"user","type":"address","internalType":"address"}],"outputs":[{"name":"farmIds","type":"uint256[]","internalType":"uint256[]"},{"name":"farms","type":"tuple[]","internalType":"struct TokenFarmManager.Farm[]","components":[{"name":"stakedAmount","type":"uint256","internalType":"uint256"},{"name":"plantTime","type":"uint256","internalType":"uint256"},{"name":"harvestTime","type":"uint256","internalType":"uint256"},{"name":"growthStage","type":"uint256","internalType":"uint256"},{"name":"growthProgress","type":"uint256","internalType":"uint256"},{"name":"isActive","type":"bool","internalType":"bool"},{"name":"isHarvested","type":"bool","internalType":"bool"}]}],"stateMutability":"view"},{"type":"function","name":"harvest","inputs":[{"name":"farmId","type":"uint256","internalType":"uint256"}],"outputs":[],"stateMutability":"nonpayable"},{"type":"function","name":"owner","inputs":[],"outputs":[{"name":"result","type":"address","internalType":"address"}],"stateMutability":"view"},{"type":"function","name":"ownershipHandoverExpiresAt","inputs":[{"name":"pendingOwner","type":"address","internalType":"address"}],"outputs":[{"name":"result","type":"uint256","internalType":"uint256"}],"stateMutability":"view"},{"type":"function","name":"paymentVault","inputs":[],"outputs":[{"name":"","type":"address","internalType":"address"}],"stateMutability":"view"},{"type":"function","name":"renounceOwnership","inputs":[],"outputs":[],"stateMutability":"payable"},{"type":"function","name":"requestOwnershipHandover","inputs":[],"outputs":[],"stateMutability":"payable"},{"type":"function","name":"setPaymentVault","inputs":[{"name":"_paymentVault","type":"address","internalType":"address"}],"outputs":[],"stateMutability":"nonpayable"},{"type":"function","name":"stake","inputs":[],"outputs":[],"stateMutability":"payable"},{"type":"function","name":"totalRewardsDistributed","inputs":[],"outputs":[{"name":"","type":"uint256","internalType":"uint256"}],"stateMutability":"view"},{"type":"function","name":"totalValueLocked","inputs":[],"outputs":[{"name":"","type":"uint256","internalType":"uint256"}],"stateMutability":"view"},{"type":"function","name":"transferOwnership","inputs":[{"name":"newOwner","type":"address","internalType":"address"}],"outputs":[],"stateMutability":"payable"},{"type":"function","name":"updateFarmGrowth","inputs":[{"name":"farmId","type":"uint256","internalType":"uint256"}],"outputs":[],"stateMutability":"nonpayable"},{"type":"function","name":"usdcToken","inputs":[],"outputs":[{"name":"","type":"address","internalType":"address"}],"stateMutability":"view"},{"type":"function","name":"userData","inputs":[{"name":"","type":"address","internalType":"address"}],"outputs":[{"name":"totalXP","type":"uint256","internalType":"uint256"},{"name":"level","type":"uint256","internalType":"uint256"},{"name":"totalHarvests","type":"uint256","internalType":"uint256"},{"name":"totalStaked","type":"uint256","internalType":"uint256"},{"name":"totalRewards","type":"uint256","internalType":"uint256"}],"stateMutability":"view"},{"type":"function","name":"userFarmCount","inputs":[{"name":"","type":"address","internalType":"address"}],"outputs":[{"name":"","type":"uint256","internalType":"uint256"}],"stateMutability":"view"},{"type":"function","name":"userFarmIds","inputs":[{"name":"","type":"address","internalType":"address"},{"name":"","type":"uint256","internalType":"uint256"}],"outputs":[{"name":"","type":"uint256","internalType":"uint256"}],"stateMutability":"view"},{"type":"function","name":"userFarms","inputs":[{"name":"","type":"address","internalType":"address"},{"name":"","type":"uint256","internalType":"uint256"}],"outputs":[{"name":"stakedAmount","type":"uint256","internalType":"uint256"},{"name":"plantTime","type":"uint256","internalType":"uint256"},{"name":"harvestTime","type":"uint256","internalType":"uint256"},{"name":"growthStage","type":"uint256","internalType":"uint256"},{"name":"growthProgress","type":"uint256","internalType":"uint256"},{"name":"isActive","type":"bool","internalType":"bool"},{"name":"isHarvested","type":"bool","internalType":"bool"}],"stateMutability":"view"},{"type":"function","name":"withdrawUnusedRewards","inputs":[{"name":"amount","type":"uint256","internalType":"uint256"}],"outputs":[],"stateMutability":"nonpayable"},{"type":"event","name":"EmergencyWithdraw","inputs":[{"name":"user","type":"address","indexed":true,"internalType":"address"},{"name":"farmId","type":"uint256","indexed":true,"internalType":"uint256"},{"name":"amount","type":"uint256","indexed":false,"internalType":"uint256"}],"anonymous":false},{"type":"event","name":"Harvested","inputs":[{"name":"user","type":"address","indexed":true,"internalType":"address"},{"name":"farmId","type":"uint256","indexed":true,"internalType":"uint256"},{"name":"stakedAmount","type":"uint256","indexed":false,"internalType":"uint256"},{"name":"reward","type":"uint256","indexed":false,"internalType":"uint256"},{"name":"xpGained","type":"uint256","indexed":false,"internalType":"uint256"}],"anonymous":false},{"type":"event","name":"LevelUp","inputs":[{"name":"user","type":"address","indexed":true,"internalType":"address"},{"name":"newLevel","type":"uint256","indexed":false,"internalType":"uint256"}],"anonymous":false},{"type":"event","name":"OwnershipHandoverCanceled","inputs":[{"name":"pendingOwner","type":"address","indexed":true,"internalType":"address"}],"anonymous":false},{"type":"event","name":"OwnershipHandoverRequested","inputs":[{"name":"pendingOwner","type":"address","indexed":true,"internalType":"address"}],"anonymous":false},{"type":"event","name":"OwnershipTransferred","inputs":[{"name":"oldOwner","type":"address","indexed":true,"internalType":"address"},{"name":"newOwner","type":"address","indexed":true,"internalType":"address"}],"anonymous":false},{"type":"event","name":"Staked","inputs":[{"name":"user","type":"address","indexed":true,"internalType":"address"},{"name":"farmId","type":"uint256","indexed":true,"internalType":"uint256"},{"name":"amount","type":"uint256","indexed":false,"internalType":"uint256"},{"name":"harvestTime","type":"uint256","indexed":false,"internalType":"uint256"}],"anonymous":false},{"type":"error","name":"AlreadyInitialized","inputs":[]},{"type":"error","name":"NewOwnerIsZeroAddress","inputs":[]},{"type":"error","name":"NoHandoverRequest","inputs":[]},{"type":"error","name":"Unauthorized","inputs":[]}],"bytecode":{"object":"0x60a060405234801562000010575f80fd5b50604051620023a7380380620023a78339810160408190526200003391620000fd565b6001600160a01b038116620000a35760405162461bcd60e51b815260206004820152602c60248201527f546f6b656e4661726d4d616e616765723a20496e76616c69642055534443207460448201526b6f6b656e206164647265737360a01b606482015260840160405180910390fd5b6001600160a01b038116608052620000bb33620000c2565b506200012c565b6001600160a01b0316638b78c6d819819055805f7f8be0079c531659141344cd1fd0a4f28419497f9722a3daafe3b4186f6b6457e08180a350565b5f602082840312156200010e575f80fd5b81516001600160a01b038116811462000125575f80fd5b9392505050565b608051612246620001615f395f81816102b001528181610f12015281816113b501528181611b740152611c5e01526122465ff3fe6080604052600436106101f4575f3560e01c80638da5cb5b11610108578063e88c096c1161009d578063f04e283e1161006d578063f04e283e1461062c578063f2fde38b1461063f578063f7864f3214610652578063fe89e63c14610671578063fee81cf414610685575f80fd5b8063e88c096c146105b8578063ec18154e146105e4578063ed3916f7146105f9578063ee17254614610617575f80fd5b8063c8910913116100d8578063c8910913146104eb578063cb2128681461055b578063ddc632621461057a578063e824f5a414610599575f80fd5b80638da5cb5b14610474578063a18f07a01461048c578063ad0763f8146104ab578063bab1661e146104c0575f80fd5b806354d1f13d11610189578063715018a611610159578063715018a6146103fb57806371ab1cce146104035780637200a7111461042257806377eb8e4a146104365780638bdf67f214610455575f80fd5b806354d1f13d1461038b578063570a47d014610393578063577cac27146103b25780636b4169c3146103c7575f80fd5b806325692962116101c4578063256929621461033b5780632f55a2d9146103455780633a4b66f1146103645780635312ea8e1461036c575f80fd5b80630f956495146101ff57806311eac8551461029f5780632313a590146102ea578063254a7f7514610317575f80fd5b366101fb57005b5f80fd5b34801561020a575f80fd5b50610261610219366004611ea7565b600460208181525f9384526040808520909152918352912080546001820154600283015460038401549484015460059094015492949193909260ff8082169161010090041687565b6040805197885260208801969096529486019390935260608501919091526080840152151560a0830152151560c082015260e0015b60405180910390f35b3480156102aa575f80fd5b506102d27f000000000000000000000000000000000000000000000000000000000000000081565b6040516001600160a01b039091168152602001610296565b3480156102f5575f80fd5b50610309610304366004611ecf565b6106b6565b604051610296929190611eef565b348015610322575f80fd5b5061032d6201518081565b604051908152602001610296565b6103436108e0565b005b348015610350575f80fd5b5061032d61035f366004611ea7565b61092d565b610343610958565b348015610377575f80fd5b50610343610386366004611faa565b610bce565b610343610d1a565b34801561039e575f80fd5b506103096103ad366004611ecf565b610d53565b3480156103bd575f80fd5b5061032d60015481565b3480156103d2575f80fd5b506103db610ee4565b604080519485526020850193909352918301526060820152608001610296565b610343610f89565b34801561040e575f80fd5b5061030961041d366004611ecf565b610f9c565b34801561042d575f80fd5b5061032d606981565b348015610441575f80fd5b5061032d610450366004611ea7565b61122a565b348015610460575f80fd5b5061034361046f366004611faa565b61136c565b34801561047f575f80fd5b50638b78c6d819546102d2565b348015610497575f80fd5b5061032d6104a6366004611fc1565b611484565b3480156104b6575f80fd5b5061032d6103e881565b3480156104cb575f80fd5b5061032d6104da366004611ecf565b60076020525f908152604090205481565b3480156104f6575f80fd5b50610533610505366004611ecf565b60066020525f9081526040902080546001820154600283015460038401546004909401549293919290919085565b604080519586526020860194909452928401919091526060830152608082015260a001610296565b348015610566575f80fd5b50610343610575366004611faa565b61152e565b348015610585575f80fd5b50610343610594366004611faa565b6115b1565b3480156105a4575f80fd5b506103436105b3366004611ecf565b6118d2565b3480156105c3575f80fd5b506105d76105d2366004611ea7565b611969565b6040516102969190611feb565b3480156105ef575f80fd5b5061032d60025481565b348015610604575f80fd5b505f546102d2906001600160a01b031681565b348015610622575f80fd5b5061032d60035481565b61034361063a366004611ecf565b611ad6565b61034361064d366004611ecf565b611b10565b34801561065d575f80fd5b5061034361066c366004611faa565b611b36565b34801561067c575f80fd5b5061032d606481565b348015610690575f80fd5b5061032d61069f366004611ecf565b63389a75e1600c9081525f91909152602090205490565b6001600160a01b0381165f90815260076020526040812054606091829190805b8281101561072c576001600160a01b0386165f90815260046020908152604080832084845290915290206005015460ff161561071a578161071681612025565b9250505b8061072481612025565b9150506106d6565b508067ffffffffffffffff8111156107465761074661203d565b60405190808252806020026020018201604052801561076f578160200160208202803683370190505b5093508067ffffffffffffffff81111561078b5761078b61203d565b6040519080825280602002602001820160405280156107c457816020015b6107b1611e52565b8152602001906001900390816107a95790505b5092505f805b838110156108d7576001600160a01b0387165f90815260046020908152604080832084845290915290206005015460ff16156108c5578086838151811061081357610813612051565b6020908102919091018101919091526001600160a01b0388165f90815260048083526040808320858452845291829020825160e081018452815481526001820154948101949094526002810154928401929092526003820154606084015281015460808301526005015460ff808216151560a084015261010090910416151560c082015285518690849081106108ab576108ab612051565b602002602001018190525081806108c190612025565b9250505b806108cf81612025565b9150506107ca565b50505050915091565b5f6202a30067ffffffffffffffff164201905063389a75e1600c52335f52806020600c2055337fdbf36a107da19e49527a7176a1babf963b4b0ff8cde35ee35d6cd8f1f9ac7e1d5f80a250565b6005602052815f5260405f208181548110610946575f80fd5b905f5260205f20015f91509150505481565b5f34116109c15760405162461bcd60e51b815260206004820152602c60248201527f546f6b656e4661726d4d616e616765723a204d757374207374616b65206d6f7260448201526b0ca40e8d0c2dc4060408aa8960a31b60648201526084015b60405180910390fd5b335f90815260076020526040812054906109de6201518042612065565b90506040518060e001604052803481526020014281526020018281526020015f81526020015f81526020016001151581526020015f151581525060045f336001600160a01b03166001600160a01b031681526020019081526020015f205f8481526020019081526020015f205f820151815f01556020820151816001015560408201518160020155606082015181600301556080820151816004015560a0820151816005015f6101000a81548160ff02191690831515021790555060c08201518160050160016101000a81548160ff02191690831515021790555090505060055f336001600160a01b03166001600160a01b031681526020019081526020015f2082908060018154018082558091505060019003905f5260205f20015f909190919091505560075f336001600160a01b03166001600160a01b031681526020019081526020015f205f815480929190610b3690612025565b9091555050335f9081526006602052604081206003018054349290610b5c908490612065565b925050819055503460025f828254610b749190612065565b909155505060018054905f610b8883612025565b90915550506040805134815260208101839052839133917fb4caaf29adda3eefee3ad552a8e85058589bf834c7466cae4ee58787f70589ed910160405180910390a35050565b335f8181526007602052604090205482908110610bfd5760405162461bcd60e51b81526004016109b890612078565b6001600160a01b0382165f90815260046020908152604080832084845290915290206005015460ff16610c425760405162461bcd60e51b81526004016109b8906120b9565b335f90815260046020908152604080832086845290915290206005810154610100900460ff1615610c855760405162461bcd60e51b81526004016109b8906120fa565b805460058201805461ffff1916610100179055600280548291905f90610cac908490612142565b9091555050604051339082156108fc029083905f818181858888f19350505050158015610cdb573d5f803e3d5ffd5b50604051818152859033907fbb757047c2b5f3974fe26b7c10f732e7bce710b0952a71082702781e62ae05959060200160405180910390a35050505050565b63389a75e1600c52335f525f6020600c2055337ffa7b8eab7da67f412cc9575ed43464468f9bfbae89d1675917346ca6d8fe3c925f80a2565b6001600160a01b0381165f9081526007602052604090205460609081908067ffffffffffffffff811115610d8957610d8961203d565b604051908082528060200260200182016040528015610db2578160200160208202803683370190505b5092508067ffffffffffffffff811115610dce57610dce61203d565b604051908082528060200260200182016040528015610e0757816020015b610df4611e52565b815260200190600190039081610dec5790505b5091505f5b81811015610edd5780848281518110610e2757610e27612051565b6020908102919091018101919091526001600160a01b0386165f90815260048083526040808320858452845291829020825160e081018452815481526001820154948101949094526002810154928401929092526003820154606084015281015460808301526005015460ff808216151560a084015261010090910416151560c08201528351849083908110610ebf57610ebf612051565b60200260200101819052508080610ed590612025565b915050610e0c565b5050915091565b6002546003546001546040516370a0823160e01b81523060048201525f938493849384936001600160a01b037f000000000000000000000000000000000000000000000000000000000000000016906370a0823190602401602060405180830381865afa158015610f57573d5f803e3d5ffd5b505050506040513d601f19601f82011682018060405250810190610f7b9190612155565b935093509350935090919293565b610f91611d26565b610f9a5f611d40565b565b6001600160a01b0381165f90815260076020526040812054606091829190805b82811015611085576001600160a01b0386165f908152600460208181526040808420858552825292839020835160e081018552815481526001820154928101929092526002810154938201939093526003830154606082015290820154608082015260059091015460ff80821615801560a08501819052610100909304909116151560c084015261104f57508060c00151155b801561105f575080604001514210155b15611072578261106e81612025565b9350505b508061107d81612025565b915050610fbc565b508067ffffffffffffffff81111561109f5761109f61203d565b6040519080825280602002602001820160405280156110c8578160200160208202803683370190505b5093508067ffffffffffffffff8111156110e4576110e461203d565b60405190808252806020026020018201604052801561111d57816020015b61110a611e52565b8152602001906001900390816111025790505b5092505f805b838110156108d7576001600160a01b0387165f908152600460208181526040808420858552825292839020835160e081018552815481526001820154928101929092526002810154938201939093526003830154606082015290820154608082015260059091015460ff80821615801560a08501819052610100909304909116151560c08401526111b657508060c00151155b80156111c6575080604001514210155b1561121757818784815181106111de576111de612051565b602002602001018181525050808684815181106111fd576111fd612051565b6020026020010181905250828061121390612025565b9350505b508061122281612025565b915050611123565b6001600160a01b0382165f908152600760205260408120548390839081106112645760405162461bcd60e51b81526004016109b890612078565b6001600160a01b0382165f90815260046020908152604080832084845290915290206005015460ff166112a95760405162461bcd60e51b81526004016109b8906120b9565b6001600160a01b0385165f908152600460208181526040808420888552825292839020835160e0810185528154815260018201549281019290925260028101549382018490526003810154606083015291820154608082015260059091015460ff808216151560a084015261010090910416151560c0820152904210611333576064935050611364565b5f8160200151426113449190612142565b90506201518061135582606461216c565b61135f9190612183565b945050505b505092915050565b611374611d26565b5f81116113935760405162461bcd60e51b81526004016109b8906121a2565b6040516323b872dd60e01b8152336004820152306024820152604481018290527f00000000000000000000000000000000000000000000000000000000000000006001600160a01b0316906323b872dd906064016020604051808303815f875af1158015611403573d5f803e3d5ffd5b505050506040513d601f19601f8201168201806040525081019061142791906121f1565b6114815760405162461bcd60e51b815260206004820152602560248201527f546f6b656e4661726d4d616e616765723a207472616e7366657246726f6d2066604482015264185a5b195960da1b60648201526084016109b8565b50565b6001600160a01b0381165f908152600660209081526040808320815160a08101835281548152600182015493810193909352600281015491830191909152600381015460608301526004015460808201528160646114e3816069612142565b6114ed908761216c565b6114f79190612183565b90505f606483602001518361150c919061216c565b6115169190612183565b90506115228183612065565b93505050505b92915050565b335f818152600760205260409020548290811061155d5760405162461bcd60e51b81526004016109b890612078565b6001600160a01b0382165f90815260046020908152604080832084845290915290206005015460ff166115a25760405162461bcd60e51b81526004016109b8906120b9565b6115ac3384611d7d565b505050565b335f81815260076020526040902054829081106115e05760405162461bcd60e51b81526004016109b890612078565b6001600160a01b0382165f90815260046020908152604080832084845290915290206005015460ff166116255760405162461bcd60e51b81526004016109b8906120b9565b61162f3384611d7d565b335f908152600460209081526040808320868452909152902060028101544210156116b15760405162461bcd60e51b815260206004820152602c60248201527f546f6b656e4661726d4d616e616765723a204661726d206e6f7420726561647960448201526b08199bdc881a185c9d995cdd60a21b60648201526084016109b8565b6005810154610100900460ff16156116db5760405162461bcd60e51b81526004016109b8906120fa565b80545f6116e88233611484565b60058401805461ffff1916610100179055335f90815260066020526040812060028101805493945090929161171c83612025565b91905055506064815f015f8282546117349190612065565b9250508190555081816004015f82825461174e9190612065565b909155505080545f90611764906103e890612183565b905081600101548111156117af576001820181905560405181815233907f91e51c29e7e87a74ad3b8ccba98538970f50a4309242735467f41e27c6b0fbac9060200160405180910390a25b8360025f8282546117c09190612142565b925050819055508260035f8282546117d89190612065565b9091555050604051339085156108fc029086905f818181858888f19350505050158015611807573d5f803e3d5ffd5b505f8311801561182057505f546001600160a01b031615155b15611884575f546040516315490ebb60e01b8152336004820152602481018590526001600160a01b03909116906315490ebb906044015f604051808303815f87803b15801561186d575f80fd5b505af115801561187f573d5f803e3d5ffd5b505050505b60408051858152602081018590526064818301529051899133917fe7d9801d1d042469575a53334cb3601a4d973e612b19b1d06b1ed01606e725ff9181900360600190a35050505050505050565b6118da611d26565b6001600160a01b0381166119485760405162461bcd60e51b815260206004820152602f60248201527f546f6b656e4661726d4d616e616765723a20496e76616c6964207061796d656e60448201526e74207661756c74206164647265737360881b60648201526084016109b8565b5f80546001600160a01b0319166001600160a01b0392909216919091179055565b6001600160a01b0382165f908152600760205260408120548390839081106119a35760405162461bcd60e51b81526004016109b890612078565b6001600160a01b0382165f90815260046020908152604080832084845290915290206005015460ff166119e85760405162461bcd60e51b81526004016109b8906120b9565b6001600160a01b0385165f908152600460208181526040808420888552825292839020835160e0810185528154815260018201549281019290925260028101549382018490526003810154606083015291820154608082015260059091015460ff808216151560a084015261010090910416151560c0820152904210611a72576003935050611364565b5f816020015142611a839190612142565b90505f62015180611a9583606461216c565b611a9f9190612183565b90506021811015611ab5575f9550505050611364565b6042811015611aca5760019550505050611364565b60029550505050611364565b611ade611d26565b63389a75e1600c52805f526020600c208054421115611b0457636f5e88185f526004601cfd5b5f905561148181611d40565b611b18611d26565b8060601b611b2d57637448fbae5f526004601cfd5b61148181611d40565b611b3e611d26565b5f8111611b5d5760405162461bcd60e51b81526004016109b8906121a2565b6040516370a0823160e01b815230600482015281907f00000000000000000000000000000000000000000000000000000000000000006001600160a01b0316906370a0823190602401602060405180830381865afa158015611bc1573d5f803e3d5ffd5b505050506040513d601f19601f82011682018060405250810190611be59190612155565b1015611c425760405162461bcd60e51b815260206004820152602660248201527f546f6b656e4661726d4d616e616765723a20496e73756666696369656e742062604482015265616c616e636560d01b60648201526084016109b8565b60405163a9059cbb60e01b8152336004820152602481018290527f00000000000000000000000000000000000000000000000000000000000000006001600160a01b03169063a9059cbb906044016020604051808303815f875af1158015611cac573d5f803e3d5ffd5b505050506040513d601f19601f82011682018060405250810190611cd091906121f1565b6114815760405162461bcd60e51b815260206004820152602160248201527f546f6b656e4661726d4d616e616765723a207472616e73666572206661696c656044820152601960fa1b60648201526084016109b8565b638b78c6d819543314610f9a576382b429005f526004601cfd5b638b78c6d81980546001600160a01b039092169182907f8be0079c531659141344cd1fd0a4f28419497f9722a3daafe3b4186f6b6457e05f80a355565b6001600160a01b0382165f9081526004602090815260408083208484529091529020600581015460ff161580611dbc57506005810154610100900460ff165b15611dc657505050565b5f816001015442611dd79190612142565b90505f62015180611de983606461216c565b611df39190612183565b905060648110611e11576064600484015560035b6003840155611e4b565b60428110611e2757600483018190556002611e07565b60218110611e3d57600483018190556001611e07565b600483018190555f60038401555b5050505050565b6040518060e001604052805f81526020015f81526020015f81526020015f81526020015f81526020015f151581526020015f151581525090565b80356001600160a01b0381168114611ea2575f80fd5b919050565b5f8060408385031215611eb8575f80fd5b611ec183611e8c565b946020939093013593505050565b5f60208284031215611edf575f80fd5b611ee882611e8c565b9392505050565b604080825283518282018190525f9190606090818501906020808901865b83811015611f2957815185529382019390820190600101611f0d565b505086830381880152875180845288820193820192505f5b81811015611f9b578451805185528381015184860152878101518886015286810151878601526080808201519086015260a08082015115159086015260c0908101511515908501529382019360e090930192600101611f41565b50919998505050505050505050565b5f60208284031215611fba575f80fd5b5035919050565b5f8060408385031215611fd2575f80fd5b82359150611fe260208401611e8c565b90509250929050565b602081016004831061200b57634e487b7160e01b5f52602160045260245ffd5b91905290565b634e487b7160e01b5f52601160045260245ffd5b5f6001820161203657612036612011565b5060010190565b634e487b7160e01b5f52604160045260245ffd5b634e487b7160e01b5f52603260045260245ffd5b8082018082111561152857611528612011565b60208082526021908201527f546f6b656e4661726d4d616e616765723a20496e76616c6964206661726d20496040820152601160fa1b606082015260800190565b60208082526021908201527f546f6b656e4661726d4d616e616765723a204661726d206e6f742061637469766040820152606560f81b606082015260800190565b60208082526028908201527f546f6b656e4661726d4d616e616765723a204661726d20616c72656164792068604082015267185c9d995cdd195960c21b606082015260800190565b8181038181111561152857611528612011565b5f60208284031215612165575f80fd5b5051919050565b808202811582820484141761152857611528612011565b5f8261219d57634e487b7160e01b5f52601260045260245ffd5b500490565b6020808252602f908201527f546f6b656e4661726d4d616e616765723a20416d6f756e74206d75737420626560408201526e02067726561746572207468616e203608c1b606082015260800190565b5f60208284031215612201575f80fd5b81518015158114611ee8575f80fdfea2646970667358221220ce2c2e00520845259bebac7ca9dc03c97c5f2d95579506c6455fd7fab6d5476f64736f6c63430008140033","linkReferences":{}},"methodIdentifiers":{"BASE_YIELD_RATE()":"7200a711","GROWTH_PERIOD()":"254a7f75","LEVEL_XP_THRESHOLD()":"ad0763f8","XP_PER_HARVEST()":"fe89e63c","calculateReward(uint256,address)":"a18f07a0","cancelOwnershipHandover()":"54d1f13d","completeOwnershipHandover(address)":"f04e283e","depositRewards(uint256)":"8bdf67f2","emergencyWithdraw(uint256)":"5312ea8e","farmCounter()":"577cac27","getActiveFarms(address)":"2313a590","getCurrentGrowthStage(address,uint256)":"e88c096c","getGlobalStats()":"6b4169c3","getGrowthProgress(address,uint256)":"77eb8e4a","getHarvestableFarms(address)":"71ab1cce","getUserFarms(address)":"570a47d0","harvest(uint256)":"ddc63262","owner()":"8da5cb5b","ownershipHandoverExpiresAt(address)":"fee81cf4","paymentVault()":"ed3916f7","renounceOwnership()":"715018a6","requestOwnershipHandover()":"25692962","setPaymentVault(address)":"e824f5a4","stake()":"3a4b66f1","totalRewardsDistributed()":"ee172546","totalValueLocked()":"ec18154e","transferOwnership(address)":"f2fde38b","updateFarmGrowth(uint256)":"cb212868","usdcToken()":"11eac855","userData(address)":"c8910913","userFarmCount(address)":"bab1661e","userFarmIds(address,uint256)":"2f55a2d9","userFarms(address,uint256)":"0f956495","withdrawUnusedRewards(uint256)":"f7864f32"},"id":20}