{"abi":[{"type":"constructor","inputs":[],"stateMutability":"nonpayable"},{"type":"function","name":"DOMAIN_SEPARATOR","inputs":[],"outputs":[{"name":"result","type":"bytes32","internalType":"bytes32"}],"stateMutability":"view"},{"type":"function","name":"allowance","inputs":[{"name":"owner","type":"address","internalType":"address"},{"name":"spender","type":"address","internalType":"address"}],"outputs":[{"name":"result","type":"uint256","internalType":"uint256"}],"stateMutability":"view"},{"type":"function","name":"approve","inputs":[{"name":"spender","type":"address","internalType":"address"},{"name":"amount","type":"uint256","internalType":"uint256"}],"outputs":[{"name":"","type":"bool","internalType":"bool"}],"stateMutability":"nonpayable"},{"type":"function","name":"balanceOf","inputs":[{"name":"owner","type":"address","internalType":"address"}],"outputs":[{"name":"result","type":"uint256","internalType":"uint256"}],"stateMutability":"view"},{"type":"function","name":"cancelOwnershipHandover","inputs":[],"outputs":[],"stateMutability":"payable"},{"type":"function","name":"completeOwnershipHandover","inputs":[{"name":"pendingOwner","type":"address","internalType":"address"}],"outputs":[],"stateMutability":"payable"},{"type":"function","name":"decimals","inputs":[],"outputs":[{"name":"","type":"uint8","internalType":"uint8"}],"stateMutability":"pure"},{"type":"function","name":"mint2","inputs":[{"name":"account","type":"address","internalType":"address"},{"name":"amount","type":"uint256","internalType":"uint256"}],"outputs":[],"stateMutability":"nonpayable"},{"type":"function","name":"name","inputs":[],"outputs":[{"name":"","type":"string","internalType":"string"}],"stateMutability":"pure"},{"type":"function","name":"nonces","inputs":[{"name":"owner","type":"address","internalType":"address"}],"outputs":[{"name":"result","type":"uint256","internalType":"uint256"}],"stateMutability":"view"},{"type":"function","name":"owner","inputs":[],"outputs":[{"name":"result","type":"address","internalType":"address"}],"stateMutability":"view"},{"type":"function","name":"ownershipHandoverExpiresAt","inputs":[{"name":"pendingOwner","type":"address","internalType":"address"}],"outputs":[{"name":"result","type":"uint256","internalType":"uint256"}],"stateMutability":"view"},{"type":"function","name":"permit","inputs":[{"name":"owner","type":"address","internalType":"address"},{"name":"spender","type":"address","internalType":"address"},{"name":"value","type":"uint256","internalType":"uint256"},{"name":"deadline","type":"uint256","internalType":"uint256"},{"name":"v","type":"uint8","internalType":"uint8"},{"name":"r","type":"bytes32","internalType":"bytes32"},{"name":"s","type":"bytes32","internalType":"bytes32"}],"outputs":[],"stateMutability":"nonpayable"},{"type":"function","name":"renounceOwnership","inputs":[],"outputs":[],"stateMutability":"payable"},{"type":"function","name":"requestOwnershipHandover","inputs":[],"outputs":[],"stateMutability":"payable"},{"type":"function","name":"symbol","inputs":[],"outputs":[{"name":"","type":"string","internalType":"string"}],"stateMutability":"pure"},{"type":"function","name":"totalSupply","inputs":[],"outputs":[{"name":"result","type":"uint256","internalType":"uint256"}],"stateMutability":"view"},{"type":"function","name":"transfer","inputs":[{"name":"to","type":"address","internalType":"address"},{"name":"amount","type":"uint256","internalType":"uint256"}],"outputs":[{"name":"","type":"bool","internalType":"bool"}],"stateMutability":"nonpayable"},{"type":"function","name":"transferFrom","inputs":[{"name":"from","type":"address","internalType":"address"},{"name":"to","type":"address","internalType":"address"},{"name":"amount","type":"uint256","internalType":"uint256"}],"outputs":[{"name":"","type":"bool","internalType":"bool"}],"stateMutability":"nonpayable"},{"type":"function","name":"transferOwnership","inputs":[{"name":"newOwner","type":"address","internalType":"address"}],"outputs":[],"stateMutability":"payable"},{"type":"event","name":"Approval","inputs":[{"name":"owner","type":"address","indexed":true,"internalType":"address"},{"name":"spender","type":"address","indexed":true,"internalType":"address"},{"name":"amount","type":"uint256","indexed":false,"internalType":"uint256"}],"anonymous":false},{"type":"event","name":"OwnershipHandoverCanceled","inputs":[{"name":"pendingOwner","type":"address","indexed":true,"internalType":"address"}],"anonymous":false},{"type":"event","name":"OwnershipHandoverRequested","inputs":[{"name":"pendingOwner","type":"address","indexed":true,"internalType":"address"}],"anonymous":false},{"type":"event","name":"OwnershipTransferred","inputs":[{"name":"oldOwner","type":"address","indexed":true,"internalType":"address"},{"name":"newOwner","type":"address","indexed":true,"internalType":"address"}],"anonymous":false},{"type":"event","name":"Transfer","inputs":[{"name":"from","type":"address","indexed":true,"internalType":"address"},{"name":"to","type":"address","indexed":true,"internalType":"address"},{"name":"amount","type":"uint256","indexed":false,"internalType":"uint256"}],"anonymous":false},{"type":"error","name":"AllowanceOverflow","inputs":[]},{"type":"error","name":"AllowanceUnderflow","inputs":[]},{"type":"error","name":"AlreadyInitialized","inputs":[]},{"type":"error","name":"InsufficientAllowance","inputs":[]},{"type":"error","name":"InsufficientBalance","inputs":[]},{"type":"error","name":"InvalidPermit","inputs":[]},{"type":"error","name":"NewOwnerIsZeroAddress","inputs":[]},{"type":"error","name":"NoHandoverRequest","inputs":[]},{"type":"error","name":"Permit2AllowanceIsFixedAtInfinity","inputs":[]},{"type":"error","name":"PermitExpired","inputs":[]},{"type":"error","name":"TotalSupplyOverflow","inputs":[]},{"type":"error","name":"Unauthorized","inputs":[]}],"bytecode":{"object":"0x608060405234801562000010575f80fd5b506200003833620000246006600a62000210565b62000032906103e862000227565b62000049565b6200004333620000c6565b62000241565b6805345cdf77eb68f44c54818101818110156200006d5763e5cfe9575f526004601cfd5b806805345cdf77eb68f44c5550506387a211a2600c52815f526020600c208181540181555080602052600c5160601c5f7fddf252ad1be2c89b69c2b068fc378daa952ba7f163c4a11628f55a4df523b3ef602080a35050565b6001600160a01b0316638b78c6d819819055805f7f8be0079c531659141344cd1fd0a4f28419497f9722a3daafe3b4186f6b6457e08180a350565b634e487b7160e01b5f52601160045260245ffd5b600181815b808511156200015557815f190482111562000139576200013962000101565b808516156200014757918102915b93841c93908002906200011a565b509250929050565b5f826200016d575060016200020a565b816200017b57505f6200020a565b81600181146200019457600281146200019f57620001bf565b60019150506200020a565b60ff841115620001b357620001b362000101565b50506001821b6200020a565b5060208310610133831016604e8410600b8410161715620001e4575081810a6200020a565b620001f0838362000115565b805f190482111562000206576200020662000101565b0290505b92915050565b5f6200022060ff8416836200015d565b9392505050565b80820281158282048414176200020a576200020a62000101565b610b8e806200024f5f395ff3fe60806040526004361061011b575f3560e01c80637ecebe001161009d578063dd62ed3e11610062578063dd62ed3e146102fd578063e3a8c9191461031c578063f04e283e1461033b578063f2fde38b1461034e578063fee81cf414610361575f80fd5b80637ecebe00146102375780638da5cb5b1461026857806395d89b4114610293578063a9059cbb146102bf578063d505accf146102de575f80fd5b8063313ce567116100e3578063313ce567146101c75780633644e515146101e257806354d1f13d146101f657806370a08231146101fe578063715018a61461022f575f80fd5b806306fdde031461011f578063095ea7b31461014957806318160ddd1461017857806323b872dd1461019e57806325692962146101bd575b5f80fd5b34801561012a575f80fd5b50610133610392565b60405161014091906109d3565b60405180910390f35b348015610154575f80fd5b50610168610163366004610a39565b6103b4565b6040519015158152602001610140565b348015610183575f80fd5b506805345cdf77eb68f44c545b604051908152602001610140565b3480156101a9575f80fd5b506101686101b8366004610a61565b610434565b6101c5610503565b005b3480156101d2575f80fd5b5060405160068152602001610140565b3480156101ed575f80fd5b50610190610550565b6101c56105cc565b348015610209575f80fd5b50610190610218366004610a9a565b6387a211a2600c9081525f91909152602090205490565b6101c5610605565b348015610242575f80fd5b50610190610251366004610a9a565b6338377508600c9081525f91909152602090205490565b348015610273575f80fd5b50638b78c6d819546040516001600160a01b039091168152602001610140565b34801561029e575f80fd5b506040805180820190915260048152635553444360e01b6020820152610133565b3480156102ca575f80fd5b506101686102d9366004610a39565b610618565b3480156102e9575f80fd5b506101c56102f8366004610aba565b61068f565b348015610308575f80fd5b50610190610317366004610b27565b610843565b348015610327575f80fd5b506101c5610336366004610a39565b610887565b6101c5610349366004610a9a565b61089d565b6101c561035c366004610a9a565b6108da565b34801561036c575f80fd5b5061019061037b366004610a9a565b63389a75e1600c9081525f91909152602090205490565b6040805180820190915260088152672aa9a21021b7b4b760c11b602082015290565b5f6001600160a01b0383166e22d473030f116ddee9f6b43ac78ba318821915176103e557633f68539a5f526004601cfd5b82602052637f5e9f20600c52335f52816034600c2055815f52602c5160601c337f8c5be1e5ebec7d5bd14f71427d1e84f3dd0314c0f7b2291e5b200ac8c7c3b92560205fa35060015b92915050565b5f8360601b6e22d473030f116ddee9f6b43ac78ba333146104895733602052637f5e9f208117600c526034600c2080548019156104865780851115610480576313be252b5f526004601cfd5b84810382555b50505b6387a211a28117600c526020600c208054808511156104af5763f4d678b85f526004601cfd5b84810382555050835f526020600c208381540181555082602052600c5160601c8160601c7fddf252ad1be2c89b69c2b068fc378daa952ba7f163c4a11628f55a4df523b3ef602080a3505060019392505050565b5f6202a30067ffffffffffffffff164201905063389a75e1600c52335f52806020600c2055337fdbf36a107da19e49527a7176a1babf963b4b0ff8cde35ee35d6cd8f1f9ac7e1d5f80a250565b5f8061055a610392565b805190602001209050604080517f8b73c3c69bb8fe3d512ecc4cf759cc79239f7b179b0ffacaa9a75d522b39400f815260208101929092527fc89efdaa54c0f20c7adf612882df0950f5a951637e0307cdcb4c672f298b8bc69082015246606082015230608082015260a09020919050565b63389a75e1600c52335f525f6020600c2055337ffa7b8eab7da67f412cc9575ed43464468f9bfbae89d1675917346ca6d8fe3c925f80a2565b61060d610900565b6106165f61091a565b565b5f6387a211a2600c52335f526020600c208054808411156106405763f4d678b85f526004601cfd5b83810382555050825f526020600c208281540181555081602052600c5160601c337fddf252ad1be2c89b69c2b068fc378daa952ba7f163c4a11628f55a4df523b3ef602080a350600192915050565b6001600160a01b0386166e22d473030f116ddee9f6b43ac78ba318851915176106bf57633f68539a5f526004601cfd5b5f6106c8610392565b8051906020012090507fc89efdaa54c0f20c7adf612882df0950f5a951637e0307cdcb4c672f298b8bc64286101561070757631a15a3cc5f526004601cfd5b6040518960601b60601c99508860601b60601c985065383775081901600e52895f526020600c2080547f8b73c3c69bb8fe3d512ecc4cf759cc79239f7b179b0ffacaa9a75d522b39400f835284602084015283604084015246606084015230608084015260a08320602e527f6e71edae12b1b97f4d1f60370fef10105fa2faae0126114a169c64845d6126c983528b60208401528a60408401528960608401528060808401528860a084015260c08320604e526042602c205f528760ff16602052866040528560605260208060805f60015afa8c3d51146107ef5763ddafbaef5f526004601cfd5b0190556303faf4f960a51b89176040526034602c20889055888a7f8c5be1e5ebec7d5bd14f71427d1e84f3dd0314c0f7b2291e5b200ac8c7c3b925602060608501a360405250505f60605250505050505050565b5f6e22d473030f116ddee9f6b43ac78ba2196001600160a01b0383160161086c57505f1961042e565b50602052637f5e9f20600c9081525f91909152603490205490565b61088f610900565b6108998282610957565b5050565b6108a5610900565b63389a75e1600c52805f526020600c2080544211156108cb57636f5e88185f526004601cfd5b5f90556108d78161091a565b50565b6108e2610900565b8060601b6108f757637448fbae5f526004601cfd5b6108d78161091a565b638b78c6d819543314610616576382b429005f526004601cfd5b638b78c6d81980546001600160a01b039092169182907f8be0079c531659141344cd1fd0a4f28419497f9722a3daafe3b4186f6b6457e05f80a355565b6805345cdf77eb68f44c548181018181101561097a5763e5cfe9575f526004601cfd5b806805345cdf77eb68f44c5550506387a211a2600c52815f526020600c208181540181555080602052600c5160601c5f7fddf252ad1be2c89b69c2b068fc378daa952ba7f163c4a11628f55a4df523b3ef602080a35050565b5f6020808352835180828501525f5b818110156109fe578581018301518582016040015282016109e2565b505f604082860101526040601f19601f8301168501019250505092915050565b80356001600160a01b0381168114610a34575f80fd5b919050565b5f8060408385031215610a4a575f80fd5b610a5383610a1e565b946020939093013593505050565b5f805f60608486031215610a73575f80fd5b610a7c84610a1e565b9250610a8a60208501610a1e565b9150604084013590509250925092565b5f60208284031215610aaa575f80fd5b610ab382610a1e565b9392505050565b5f805f805f805f60e0888a031215610ad0575f80fd5b610ad988610a1e565b9650610ae760208901610a1e565b95506040880135945060608801359350608088013560ff81168114610b0a575f80fd5b9699959850939692959460a0840135945060c09093013592915050565b5f8060408385031215610b38575f80fd5b610b4183610a1e565b9150610b4f60208401610a1e565b9050925092905056fea2646970667358221220a744123b68193ddc723fc752090854a9a6bacb2ad89e4bf5246c06a50f40c40a64736f6c63430008140033","linkReferences":{}},"methodIdentifiers":{"DOMAIN_SEPARATOR()":"3644e515","allowance(address,address)":"dd62ed3e","approve(address,uint256)":"095ea7b3","balanceOf(address)":"70a08231","cancelOwnershipHandover()":"54d1f13d","completeOwnershipHandover(address)":"f04e283e","decimals()":"313ce567","mint2(address,uint256)":"e3a8c919","name()":"06fdde03","nonces(address)":"7ecebe00","owner()":"8da5cb5b","ownershipHandoverExpiresAt(address)":"fee81cf4","permit(address,address,uint256,uint256,uint8,bytes32,bytes32)":"d505accf","renounceOwnership()":"715018a6","requestOwnershipHandover()":"25692962","symbol()":"95d89b41","totalSupply()":"18160ddd","transfer(address,uint256)":"a9059cbb","transferFrom(address,address,uint256)":"23b872dd","transferOwnership(address)":"f2fde38b"},"id":21}